:03000000020233C6
:0C023300787FE4F6D8FD75815B02023F85
:07001900244750524D432C17
:10000300759850758920758780758DFA758BFAD22E
:06001300ACD2AFD28E2238
:05023F0012000380FE27
:03002300020135A2
:10013500C0E0C0F0C083C082C0D075D000C000C090
:0D01450001C002C003C004C005C006C00711
:10015200784D7C007D007BFF7A0079197E007F0755
:100162001200F6754C007408254CF8A699C2980541
:100172004CE54CB444F07557007558007559087534
:100182005A00755B077B007A00794D1201C4EF704B
:1001920016054C7408254CF8E6FF640A60098F992D
:0701A2003099FDC29980EACB
:1001A900D007D006D005D004D003D002D001D000AA
:0B01B900D0D0D082D083D0F0D0E03254
:10002600E709F608DFFA8046E709F208DFFA803EBC
:1000360088828C83E709F0A3DFFA8032E309F608A9
:10004600DFFA8078E309F208DFFA807088828C8311
:10005600E309F0A3DFFA806489828A83E0A3F608C5
:10006600DFFA805889828A83E0A3F208DFFA804C9F
:1000760080D280FA80C680D4806980F28033801076
:1000860080A680EA809A80A880DA80E280CA8033DF
:1000960089828A83ECFAE493A3C8C582C8CCC58357
:1000A600CCF0A3C8C582C8CCC583CCDFE9DEE78027
:1000B6000D89828A83E493A3F608DFF9ECFAA9F0A6
:1000C600EDFB2289828A83ECFAE0A3C8C582C8CCFC
:1000D600C583CCF0A3C8C582C8CCC583CCDFEADE15
:1000E600E880DB89828A83E493A3F208DFF980CC77
:1000F60088F0EF60010E4E60C388F0ED2402B40470
:100106000050B9F582EB2402B4040050AF23234516
:06011600822390007673C5
:1001C4008B548A558956AB57AA58A95912011CFE5B
:1001D400AB54AA55A95612011CFF6E702BEF600D8B
:1001E400E55B155B7002155A14455A70037F0022B3
:1001F40074012556F556E43555F55574012559F520
:1002040059E43558F55880BEAB54AA55A956120185
:100214001CFDD3EE6480F8ED64809840037F0122D6
:0F022400AB57AA58A95912011CFFC3ED9FFF2227
:10011C00BB010689828A83E0225002E722BBFE02E1
:09012C00E32289828A83E4932214
:00000001FF
